:10044E0050617373776F72643A004F4B20004552C0
:02045E0052004A
:10018C0012043A7BFF7A04794E7D017F011203AD94
:10019C001200038F1CE51C6046D3940A5033C3E550
:1001AC00199404E51894005020AE1AAF1B7C007D06
:1001BC000A1202688E1A8F1BE51C75F00A84E5F092
:1001CC00251BF51BE4351AF51A0519E519700205FE
:1001DC0018750C04AB1BAA1A7D017F021203EEE505
:1001EC001C640B7028E51BB4D20DE51AB404087B13
:1001FC00FF7A04795880067BFF7A04795C7D0E7F48
:10020C00011203ADE4F51AF51BF518F519E51C649C
:10021C000C600302019CF51AF51BF518F519750C09
:0F022C0004AB1BAA1A7D017F021203EE02019C94
:0A040B00EF1FAC0670011E4C600EDE
:0C041500750902750AEFD50AFDD509FA39
:0304210080E8224E
:06046000C2A58F80D2A7A7
:080466007F027EEFDEFEDFFCE9
:01046E00226B
:0A047B00C2A6120460C2A7020466C4
:1003D000CFCDCFCECCCE12027A7C007D0A12027A2B
:0403E000ED2430FFD9
:0A03E400D2A6120460C2A70204664C
:10042400AE07BE0104ED148006BE0209ED243F446C
:0604340080FF12047B2290
:10043A007F3812047B7F0C12047B7F0612047B7FB9
:04044A000102047B2C
:0A048500AC03120424AF040203E4E8
:0603AD008B088A09890A91
:1003B300120424E4FDAB08AA09A90A8D82758300FF
:0C03C30012023BFF60061203E40D80E90B
:0103CF00220B
:0C037A007F0AEA24FFFDE434FFFC7E0053
:080386008E0D8F0E8C0F8D10FF
:10038E007F017E00E4FBEBC39510E50F6480F874EB
:0E039E008098500AAC0DAD0E1202680B80E87C
:0103AC00222E
:0403EE008A0A8B0BE1
:1003F200120424AA0CEAD39400400D12037AAC0A28
:08040200AD0B1203D01A80EDCE
:01040A0022CF
:1002CF00120424C3EA64809480400B7F2B1203E452
:1002DF008A168B17800E7F2D1203E4C3E49BF5174C
:1002EF00E49AF516AA15EAD39400400D12037AACDE
:0902FF0016AD171203D01A80EDB0
:0103080022D2
:040309008A1F8B209C
:10030D00120424AA21EAD3940040297F1012037C01
:10031D00AC1FAD20CFCDCFCECCCE12027AEF540F85
:10032D00FEC3940AEE5004243080022437FF1203DA
:04033D00E41A80D16D
:010341002299
:040342008A248B2559
:10034600120424AA26EAD394004028EA24FFFDE4F6
:1003560034FFFC7F027E00120386AC24AD25CFCD90
:10036600CFCECCCE12027AEF54012430FF1203E432
:030376001A80D218
:010379002261
:10000300E4F5087590FFC2932097137F14FE120442
:100013000B3097FD7F147E0012040B7508012096A8
:10002300147F147E0012040B3096FD7F147E0012A1
:10003300040B7508052095147F147E0012040B3001
:1000430095FD7F147E0012040B7508092094147F1C
:10005300147E0012040B3094FD7F147E0012040BF7
:1000630075080D7590FFC2922097147F147E0012BD
:10007300040B3097FD7F147E0012040B75080220D9
:1000830096147F147E0012040B3096FD7F147E00BD
:1000930012040B7508062095147F147E0012040BBE
:1000A3003095FD7F147E0012040B75080A2094140A
:1000B3007F147E0012040B3094FD7F147E00120423
:1000C3000B75080E7590FFC2912097147F147E0064
:1000D30012040B3097FD7F147E0012040B75080386
:1000E3002096147F147E0012040B3096FD7F147E3D
:1000F3000012040B7508072095147F147E00120468
:100103000B3095FD7F147E0012040B75080B2094B1
:10011300147F147E0012040B3094FD7F147E0012B2
:10012300040B75080F7590FFC2902097147F147EFF
:100133000012040B3097FD7F147E0012040B750828
:10014300042096147F147E0012040B3096FD7F1456
:100153007E0012040B7508082095147F147E00128C
:10016300040B3095FD7F147E0012040B75080C20E0
:1001730094147F147E0012040B3094FD7F147E00D0
:0801830012040B750810AF080F
:01018B002251
:0300000002046F88
:0C046F00787FE4F6D8FD75812602018C30
:10023B00BB010CE58229F582E5833AF583E0225078
:10024B0006E92582F8E622BBFE06E92582F8E222C2
:0D025B00E58229F582E5833AF583E49322DC
:10026800EF8DF0A4A8F0CF8CF0A428CE8DF0A42EAA
:02027800FE2264
:10027A00BC000BBE0029EF8DF084FFADF022E4CC68
:10028A00F875F008EF2FFFEE33FEEC33FCEE9DEC31
:10029A00984005FCEE9DFE0FD5F0E9E4CEFD22ED77
:1002AA00F8F5F0EE8420D21CFEADF075F008EF2FC1
:1002BA00FFED33FD4007985006D5F0F222C398FDB2
:0502CA000FD5F0EA224F
:00000001FF
