:100072000000000000000000FF080808FF000E1545
:10008200151508007E0102007E0102000E11110EFC
:1000920000007D00000000000000000000000000E1
:10000300E4F509F50A1200E9E4F508E50825099085
:10001300007293FD7C00AF081200A20508E508C337
:10002300940840E7050AE50AB408DDE4F50A050982
:0A003300E509B424D3E4F50980CEFA
:0A00C400EF1FAC0670011E4C600E29
:0C00CE00750C02750DC7D50DFDD50CFAA0
:0300DA0080E82299
:0500E900C2B6C2B52201
:02003D00A90711
:10003F00E4FBFAAF0374807E00A807088006CEA207
:10004F00E713CE13D8F8FFE9FDEF5D24FF92B4D28A
:10005F00B6C2B60BBB00010AEB64084A70D5D2B525
:02006F00C2B518
:01007100226C
:1000A2008F0BAF0512003DAF0B7480A807088002CA
:1000B200C313D8FCF4F5807F017E001200C4758062
:0200C200FF221B
:030000000200DD1E
:0C00DD00787FE4F6D8FD75810D02000369
:00000001FF
