:10088200543A0054483A00544C3A004F563A480001
:0A0892004F563A4C002020202000B1
:10039F0012094A7FE87E0312089CE4FF1207018FBF
:1003AF00147F011207018F0EE514D3947D5011C3F2
:1003BF00EF94C97480947F4007E514D3950E5006CF
:1003CF00751414750E0F1208CE1209277BFF7A08C9
:1003DF0079827D017F011207AA7BFF7A0879857DDB
:1003EF00017F021207AA7BFF7A0879897D097F02B4
:1003FF001207AAE514FB7A007519037D047F021218
:10040F0005EAE50EFB7A007519037D0C7F021205D4
:10041F00EA1209958F1312094A1207318F128E11A2
:10042F008D108C0FE4FFFEFDFCAB12AA11A910A8D2
:10043F000F1201B4501E7B2D7D037F01120979AF7E
:10044F0012AE11AD10AC0F12022D8F0D8E0C8D0B45
:10045F008C0A80157B2B7D037F0112097985120D84
:10046F0085110C85100B850F0AAF0DAE0CAD0BACC3
:10047F000A12027CAB07AA067519037D047F0112CD
:10048F0008657B3A7D077F01120979E4FFFE7DC87D
:10049F007C42AB0DAA0CA90BA80A12000E12027C0B
:1004AF007C007D6412033CAA04AB057519037D081B
:1004BF007F01120865E5136062B4010C0514E514A1
:1004CF00D3947D400375147DE513B4020B1514E529
:1004DF0014D3950E50020514E513B4030B050EE566
:1004EF000EC395144002150EE513B40410150EC378
:1004FF00E50E94C97480947F5003750EC9E514FB03
:10050F007A007519037D047F021205EAE50EFB7A66
:10051F00007519037D0C7F021205EAAC14E4120278
:10052F0048AB12AA11A910A80F1201B4600A400813
:10053F007BFF7A08798D801FAC0EE4120248AB1254
:10054F00AA11A910A80F1201B47BFF50067A0879DF
:10055F009280047A0879977D0D7F011207AAE5141E
:10056F00FD7C00E4FF1207867F057E0012089CE5E4
:10057F000EFD7C007F011207867F057E0012089C0E
:03058F0002042043
:03000B0002059259
:10059200C0E0C0F0C083C082C0D075D000C000C02F
:0D05A20001C002C003C004C005C006C007B0
:1005AF00758A18758CFC0509E50970020508C39456
:1005BF0014E5089400400975080075090012065DDE
:1005CF00D007D006D005D004D003D002D001D00080
:0B05DF00D0D0D082D083D0F0D0E0322A
:0A089C00EF1FAC0670011E4C600E49
:0C08A6007515027516C7D516FDD515FA9C
:0308B20080E822B9
:09098300D2A0D2A1C2A0C2A1229F
:07000300C2A0D2A1D2A0228D
:02075D00AD07E6
:10075F00E4FB74807E00A803088006CEA2E713CEC8
:10076F0013D8F8FFEDF582EF558224FF92A0D2A1A6
:06077F00C2A10BBB08DC67
:010785002251
:1007ED00E4FFD2A0FED2A130A00D7480A80608802F
:0D07FD0002C313D8FC4207C2A10EBE08E8DB
:01080A0022CB
:09098C00A20092A0D2A1C2A12296
:0B095700D2A0D2A1A2A0E433FFC2A1F5
:010962002272
:06093B00C2A58F80D2A7C7
:080941007F027EEFDEFEDFFC09
:01094900228B
:0A096F00C2A612093BC2A70209410B
:10080B00CFCDCFCECCCE12033C7C007D0A12033C65
:04081B00ED2430FF99
:0A081F00D2A612093BC2A70209414C
:1008E500AE07BE0104ED148006BE0209ED243F44A7
:0608F50080FF12096F22D2
:100927007F3812096F7F0C12096F7F0612096F7FDC
:040937000102096F41
:0A097900AC031208E5AF0402081FEA
:0607AA008B158A16891769
:1007B0001208E5E4FDAB15AA16A9178D8275830012
:0C07C0001202FDFF600612081F0D80E908
:0107CC00220A
:0C06CE007F0AEA24FFFDE434FFFC7E00FC
:0806DA008E1C8F1D8C1E8D1F6C
:1006E2007F017E00E4FBEBC3951FE51E6480F87476
:0E06F2008098500AAC1CAD1D12032A0B80E844
:0107000022D6
:040865008A178B184B
:100869001208E5AA19EAD39400400D1206CEAC1776
:08087900AD1812080B1A80ED06
:010881002254
:1005EA001208E5C3EA64809480400B7F2B12081F2F
:1005FA008A1A8B1B800E7F2D12081FC3E49BF51BE2
:10060A00E49AF51AAA19EAD39400400D1206CEAC60
:09061A001AAD1B12080B1A80ED49
:0106230022B4
:040624008A238B2476
:100628001208E5AA25EAD3940040297F101206D0C3
:10063800AC23AD24CFCDCFCECCCE12033CEF540F9C
:10064800FEC3940AEE5004243080022437FF1208B7
:040658001F1A80D114
:01065C00227B
:040696008A288B29FA
:10069A001208E5AA2AEAD394004028EA24FFFDE4D6
:1006AA0034FFFC7F027E001206DAAC28AD29CFCDDA
:1006BA00CFCECCCE12033CEF54012430FF12081FD8
:0306CA001A80D2C1
:0106CD00220A
:100786008F158C168D171209837FA012075D12092B
:1007960057AF1512075D120957AF1712075D1209F9
:0407A60057020003F3
:020701008F1552
:100703001209837FA012075D120957AF1512075D07
:100713001209571209837FA112075D1209571207A5
:0D072300ED8F16D20012098C120003AF16E4
:0107300022A6
:0D094A001208297FCC1208B57F440208B5C1
:100731001208297FCC1208B57FBE1208B51207CD69
:100741008F151207CDEFFEE515FFFDAC06EC120289
:0B07510043E4FBFA79807841120117A5
:01075C00227A
:10082900C2AFD2B7C2B77FE3DFFED2B77F1DDFFE0B
:0D083900A2B7E433FE7FE3DFFED2AFAF06CF
:01084600228F
:1008FB00C2AFC2B77E02DEFEEF24FF92B77E16DEDA
:05090B00FED2B7D2AFDF
:0109100022C4
:10084700C2AFC2B77F01DFFED2B77F01DFFEA2B71B
:0D085700E433FE7F16DFFED2AFAF067E0059
:010864002271
:0208B500AD078D
:1008B700E4FC7401A804088002C333D8FC5DFF126E
:0608C70008FB0CBC08EC6C
:0108CD002208
:1007CD00E4FDFC120847EF4E600D7401A80408808B
:0F07DD0002C333D8FC42050CBC08E8AF057E0010
:0107EC0022EA
:05099500AF2DE4F52D7B
:01099A00223A
:10091100E4FF20B1010F20B0027F0220B2027F0369
:0509210020B3027F0479
:0109260022AE
:10065D00852B2C1209118F2BE52CB40107E52B707E
:10066D0003752D01E52CB40207E52B7003752D02E2
:10067D00E52CB40307E52B7003752D03E52CB404AD
:08068D0007E52B7003752D0435
:010695002242
:1008CE005389F0438901758A18758CFCC28DD28CC0
:0708DE00D2A9D2AFC2B9227A
:10000E00EC4D6011E8497017ED33EC3304600DE4EC
:10001E00FCFFFEFD22E933E8330470F80202E81219
:10002E0002B358046009E4CC24815006285009021A
:10003E0002F22840030202EFC0E0EB4A7044B9809E
:10004E0006D0E0FB0202DEEF4E701CBD8008EBFF17
:10005E00EAFEE9FD80EBE98DF0A4FEE5F00200F783
:10006E00E9CDF9EAFEEBFFEF89F0A4FCE5F0CE89CD
:10007E00F0A42EFFE435F0CD89F0A42DFEE435F08A
:10008E008067EF4E7005BD80D780C3EF8BF0A4ACB8
:10009E00F0EE8BF0A42CFCE435F0F8EF8AF0A42CF3
:1000AE00E5F038FCE433CB8DF0A42CFCE5F03BF806
:1000BE00EE8AF0A42CFCE5F038F8E433CF89F0A4F6
:1000CE002CFCE5F038CF3400CE89F0A42FFFE5F0FC
:1000DE003EFEE433C98DF0A42EFEE5F039CD8AF054
:1000EE00A42FFFE5F03EFEE43DFD33D0E0FB5007CC
:1000FE000BBB000F0202F2EC2CFCEF33FFEE33FED3
:06010E00ED33FD0202CA00
:100114000202F2EC5D046005E8590470030202E88F
:100124001202B3580460F6EC4860F2EC7004FDFE71
:10013400FF22C860DB2481C85009C39860025006BE
:100144000202EF9850CAF582E9294B4A7005AB8246
:100154000202DE75F0007C1A7880C3EF9BEE9AED04
:1001640099400DC3EF9BFFEE9AFEED99FDE842F036
:10017400DC23ACF0D0E0FFD0E0FED0E0FDAB822089
:10018400E7101BEB60BAEC2CFCEF33FFEE33FEED13
:1001940033FD0202CAE803F830E705C0F075F00049
:1001A400EF2FFFEE33FEED33FD40B830E7C280AAF7
:1001B40074F8CC6480CCC86480C8F58204604FC3F2
:1001C400EB9FF5F0EA9E42F0E99D42F0E89C45F091
:1001D400603C501DE5825FFFE582D313CB5BCBF41B
:1001E4002B5582FB50280ABA002409B90020088044
:1001F4001DE5825BFBE582D313CF5FCFF4C3132FDE
:100204005582FF50090EBE00050DBD00010CC3EB65
:100214009FF5F0EA9E42F0E99D42F0E89C45F060CB
:0902240007CC4820E701B3EC22ED
:10022D00ED33EC33600A047003BD8004ECB2E7FCDF
:01023D00229E
:10023E0075F020800E75F010800575F0087D007E3B
:10024E00007F003392D530D503120391EC3340106A
:10025E00EF33FFEE33FEED33FDEC33FCD5F0ED2244
:0E026E00E5F0247EA2D513CC92E7CDCEFF2280
:10027C00EDD2E7CD33EC3392D524814006E4FFFE7A
:10028C00FDFC22FCE4CFCECDCC24E0501174FF80D9
:10029C00EDC3CC13CCCD13CDCE13CECF13CF047076
:0702AC00F030D5DE020391E2
:1002B300E9D2E7C933E833F892D5EDD2E7CD33EC91
:0702C30033FC5002B2D5220A
:1002CA00EC30E7100FBF000C0EBE00080DBD000495
:1002DA000BEB6014A2D5EB13FCED92E7FD2274FF41
:1002EA00FCFDFEFF22E480F8A2D574FF13FC7D809A
:0302FA00E480EFAE
:030000000209638F
:0C096300787FE4F6D8FD75812D02039F1B
:1002FD00BB010CE58229F582E5833AF583E02250B6
:10030D0006E92582F8E622BBFE06E92582F8E222FF
:0D031D00E58229F582E5833AF583E4932219
:10032A00EF8DF0A4A8F0CF8CF0A428CE8DF0A42EE7
:02033A00FE22A1
:10033C00BC000BBE0029EF8DF084FFADF022E4CCA5
:10034C00F875F008EF2FFFEE33FEEC33FCEE9DEC6E
:10035C00984005FCEE9DFE0FD5F0E9E4CEFD22EDB4
:10036C00F8F5F0EE8420D21CFEADF075F008EF2FFE
:10037C00FFED33FD4007985006D5F0F222C398FDEF
:05038C000FD5F0EA228C
:0E039100C3E49FFFE49EFEE49DFDE49CFC227D
:00000001FF
