:1003620048656C6C6F005772697465204F4B0020B2
:10037200202020202020200052656164204F4B0065
:1000030012040A7BFF7A0379627D017F0112033FA9
:100013001201758F1FE51FB40115051EE51E700241
:10002300051D750C05FBAA1D7D017F011203BEE5AD
:100033001FB40216E51E151E7002151D750C05ABC7
:100043001EAA1D7D017F011203BEE51F64037040DC
:10005300FCAD1EFF12031B7F057E001203DBE51DB3
:10006300FD7C007F0112031B7F057E001203DB7BF7
:10007300FF7A0379687D017F0212033F7FE87E03E5
:100083001203DB7BFF7A0379717D017F0212033F49
:10009300E51F64046003020013FF1202C2751D0012
:1000A3008F1E7F011202C2EFFEEE421D750C05ABDF
:1000B3001EAA1D7D017F011203BE7BFF7A03797A9D
:1000C3007D017F0212033F7FE87E031203DB7BFF88
:0E00D3007A0379717D017F0212033F02001350
:0A03DB00EF1FAC0670011E4C600E0F
:0C03E500750A02750BC7D50BFDD50AFA8E
:0303F10080E8227F
:10017500E4F508F50920B1167F14FE1203DB30B152
:10018500FD7F147E001203DB75080075090120B0A0
:10019500177F147E001203DB30B0FD7F147E001242
:1001A50003DB75080075090220B2177F147E001263
:1001B50003DB30B2FD7F147E001203DB750800758A
:1001C500090320B3177F147E001203DB30B3FD7FD4
:0E01D500147E001203DB750800750904AF09E3
:0101E30022F9
:06041E00C2A58F80D2A7E9
:080424007F027EEFDEFEDFFC2B
:01042C0022AD
:0A044500C2A612041EC2A70204247E
:10038200CFCDCFCECCCE1201207C007D0A1201202F
:04039200ED2430FF27
:0A039600D2A612041EC2A70204241E
:1003F400AE07BE0104ED148006BE0209ED243F449D
:0604040080FF12044522F6
:10040A007F381204457F0C1204457F061204457F8B
:04041A000102044592
:0A044F00AC031203F4AF040203969D
:06033F008B088A09890AFF
:100345001203F4E4FDAB08AA09A90A8D827583009E
:0C0355001200E1FF60061203960D80E923
:010361002279
:0C028F007F0AEA24FFFDE434FFFC7E003F
:08029B008E0D8F0E8C0F8D10EB
:1002A3007F017E00E4FBEBC39510E50F6480F874D7
:0E02B3008098500AAC0DAD0E12010E0B80E8C3
:0102C100221A
:0403BE008A0A8B0B11
:1003C2001203F4AA0CEAD39400400D12028FAC0A75
:0803D200AD0B1203821A80ED4D
:0103DA002200
:1001E4001203F4C3EA64809480400B7F2B120396BD
:1001F4008A168B17800E7F2D120396C3E49BF51786
:10020400E49AF516AA15EAD39400400D12028FACB5
:0902140016AD171203821A80EDE9
:01021D0022BE
:04021E008A1A8B1B92
:100222001203F4AA1CEAD3940040297F101202910F
:10023200AC1AAD1BCFCDCFCECCCE120120EF540FD6
:10024200FEC3940AEE5004243080022437FF1203C6
:04025200961A80D1A7
:010256002285
:040257008A238B2447
:10025B001203F4AA25EAD394004028EA24FFFDE414
:10026B0034FFFC7F027E0012029BAC23AD24CFCD6A
:10027B00CFCECCCE120120EF54012430FF120396C7
:03028B001A80D204
:01028E00224D
:10031B008F088C098D0A1204597FA01202F2120465
:10032B002DAF081202F212042DAF0A1202F21204C0
:04033B002D02046B20
:0202C2008F08A3
:1002C4001204597FA01202F212042DAF081202F296
:1002D40012042D1204597FA11202F212042D1203EA
:0D02E400A08F09D20012046212046BAF0952
:0102F10022EA
:09045900D2A0D2A1C2A0C2A122CE
:07046B00C2A0D2A1D2A02221
:0202F200AD0756
:1002F400E4FB74807E00A803088006CEA2E713CE38
:1003040013D8F8FFEDF582EF558224FF92A0D2A115
:06031400C2A10BBB08DCD6
:01031A0022C0
:1003A000E4FFD2A0FED2A130A00D7480A806088080
:0D03B00002C313D8FC4207C2A10EBE08E82C
:0103BD00221D
:09046200A20092A0D2A1C2A122C5
:0B042D00D2A0D2A1A2A0E433FFC2A124
:0104380022A1
:03000000020439BE
:0C043900787FE4F6D8FD758125020003F1
:1000E100BB010CE58229F582E5833AF583E02250D4
:1000F10006E92582F8E622BBFE06E92582F8E2221E
:0D010100E58229F582E5833AF583E4932237
:10010E00EF8DF0A4A8F0CF8CF0A428CE8DF0A42E05
:02011E00FE22BF
:10012000BC000BBE0029EF8DF084FFADF022E4CCC3
:10013000F875F008EF2FFFEE33FEEC33FCEE9DEC8C
:10014000984005FCEE9DFE0FD5F0E9E4CEFD22EDD2
:10015000F8F5F0EE8420D21CFEADF075F008EF2F1C
:10016000FFED33FD4007985006D5F0F222C398FD0D
:050170000FD5F0EA22AA
:00000001FF
