:02033400410086
:100291001202A67BFF7A0379347D017F0112021AD3
:0502A10012032E80FE97
:0A027800EF1FAC0670011E4C600E73
:0C0282007540027541EFD541FDD540FAF2
:03028E0080E822E3
:0602DA00C2A58F80D2A72F
:0802E0007F027EEFDEFEDFFC71
:0102E80022F3
:0A030B00C2A61202DAC2A70202E045
:10023D00CFCDCFCECCCE1200E17C007D0A1200E1F5
:04024D00ED2430FF6D
:0A025100D2A61202DAC2A70202E0F0
:1002A6007F3812030B7F0C12030B7F0612030B7FA2
:0402B6000102030B33
:1002BA00EDBF0103148002243F4480FF12030B2286
:0A031500AC031202BAAF0402025159
:06021A008B3D8A3E893F86
:100220001202BAE4FDAB3DAA3EA93F8D8275830060
:0C0230001200A2FF60061202510D80E9CE
:01023C00229F
:0C01E7007F0AEA24FFFDE434FFFC7E00E8
:0801F3008E368F378C388D39F0
:1001FB007F017E00E4FBEBC39539E5386480F8742E
:0E020B008098500AAC36AD371200CF0B80E859
:0102190022C2
:04025B008A298B2A37
:10025F001202BAAA2BEAD39400400D1201E7AC297F
:08026F00AD2A12023D1A80EDD8
:010277002264
:100136001202BAC3EA6480948040097F2B120251EE
:100146008A258B26C3EA64809480500E7F2D120286
:1001560051C3E49BF526E49AF525AA24EAD3940034
:0F016600400D1201E7AC25AD2612023D1A80EDC7
:010175002267
:040176008A2E8B2F13
:10017A001202BAAA30EAD3940040297F101201E988
:10018A00AC2EAD2FCFCDCFCECCCE1200E1EF540F97
:10019A00FEC3940AEE5004243080022437FF120270
:0401AA00511A80D195
:0101AE00222E
:0401AF008A338B34D0
:1001B3001202BAAA35EAD394004028EA24FFFDE4E8
:1001C30034FFFC7F027E001201F3AC33AD34CFCD9C
:1001D300CFCECCCE1200E1EF54012430FF120251F6
:0301E3001A80D2AD
:0101E60022F6
:0B02F500D288C289D2A8D2AFD2B822B2
:1002CA005389F0438901E4F58AF58CC28DC28C22E8
:0B030000AD07AC068C8CAF058F8A2285
:09031F00AF8CEFFEAD8AEDFF2268
:06032800EF24FF928C227D
:06032E001202CA0202F5F2
:03000300020006F2
:10000600C0E0C0F0C083C082C0D075D000C000C0C0
:1000160001C002C003C004C005C006C007E50870E1
:1000260011F5A0FFFE1203007F01120328750801D7
:10003600804FE5086401704912031F8E098F0AE498
:10004600FFFE120300D3E50A94C8E5099432400F77
:10005600E50A94B0E509943650057508028022D366
:10006600E50A94FEE50994294014E50A94E6E509B3
:10007600942D500A750D01E4FF12032880007508BF
:1000860000D007D006D005D004D003D002D001D0CE
:0C00960000D0D0D082D083D0F0D0E03277
:030000000202E910
:0C02E900787FE4F6D8FD75814102029197
:1000A200BB010CE58229F582E5833AF583E0225013
:1000B20006E92582F8E622BBFE06E92582F8E2225D
:0D00C200E58229F582E5833AF583E4932277
:1000CF00EF8DF0A4A8F0CF8CF0A428CE8DF0A42E45
:0200DF00FE22FF
:1000E100BC000BBE0029EF8DF084FFADF022E4CC03
:1000F100F875F008EF2FFFEE33FEEC33FCEE9DECCC
:10010100984005FCEE9DFE0FD5F0E9E4CEFD22ED11
:10011100F8F5F0EE8420D21CFEADF075F008EF2F5B
:10012100FFED33FD4007985006D5F0F222C398FD4C
:050131000FD5F0EA22E9
:00000001FF
