:10019E0050616E57616E5969206973205342212058
:0F01AE0053422069732050616E57616E5969008A
:100225001202117BFF7A01799E7D017F0112017B0C
:0202350080FE49
:06024700C2A58F80D2A7C2
:08024D007F027EEFDEFEDFFC04
:010255002286
:0A026200C2A6120247C2A702024D15
:1001BD00CFCDCFCECCCE1200427C007D0A120042B4
:0401CD00ED2430FFEE
:0A01D100D2A6120247C2A702024D97
:100211007F381202627F0C1202627F061202627F35
:040221000102026272
:10023700EDBF0103148002243F4480FF12026222B3
:0A026C00AC03120237AF040201D107
:06017B008B228A23892477
:10018100120237E4FDAB22AA23A9248D82758300D4
:0C019100120003FF60061201D10D80E98E
:01019D00223F
:0C0148007F0AEA24FFFDE434FFFC7E0087
:080154008E1E8F1F8C208D21EF
:10015C007F017E00E4FBEBC39521E5206480F874FD
:0E016C008098500AAC1EAD1F1200300B80E8C8
:01017A002262
:0401DB008A118B12E8
:1001DF00120237AA13EAD39400400D120148AC1152
:0801EF00AD121201BD1A80EDF2
:0101F70022E5
:10009700120237C3EA6480948040097F2B1201D192
:1000A7008A0D8B0EC3EA64809480500E7F2D120157
:1000B700D1C3E49BF50EE49AF50DAA0CEAD394009C
:0F00C700400D120148AC0DAD0E1201BD1A80EDB7
:0100D6002207
:0400D7008A168B17E3
:1000DB00120237AA18EAD3940040297F1012014A62
:1000EB00AC16AD17CFCDCFCECCCE120042EF540F06
:1000FB00FEC3940AEE5004243080022437FF120111
:04010B00D11A80D1B4
:01010F0022CD
:040110008A1B8B1C9F
:10011400120237AA1DEAD394004028EA24FFFDE422
:1001240034FFFC7F027E00120154AC1BAD1CCFCD0A
:10013400CFCECCCE120042EF54012430FF1201D1B5
:030144001A80D24C
:010147002295
:0A01F800EF1FAC0670011E4C600EF4
:0C0202007525027526C7D526FDD525FA06
:03020E0080E82263
:03000000020256A3
:0C025600787FE4F6D8FD758126020225B1
:10000300BB010CE58229F582E5833AF583E02250B2
:1000130006E92582F8E622BBFE06E92582F8E222FC
:0D002300E58229F582E5833AF583E4932216
:10003000EF8DF0A4A8F0CF8CF0A428CE8DF0A42EE4
:02004000FE229E
:10004200BC000BBE0029EF8DF084FFADF022E4CCA2
:10005200F875F008EF2FFFEE33FEEC33FCEE9DEC6B
:10006200984005FCEE9DFE0FD5F0E9E4CEFD22EDB1
:10007200F8F5F0EE8420D21CFEADF075F008EF2FFB
:10008200FFED33FD4007985006D5F0F222C398FDEC
:050092000FD5F0EA2289
:00000001FF
