:10000E001203C01204148F2BE52BB4010CE52A70D9
:10001E00047F0180027F008F2AE52BB40207E4F5EE
:10002E0028F527F529E52B64037033E528FD7C00C0
:10003E00E4FF12032D7F057E001203A7E527FD7C4A
:10004E00007F0112032D7F057E001203A7E529FD17
:10005E007C007F0212032D7F057E001203A7E52B85
:10006E00B40415E4FF1202AC8F287F011202AC8F8C
:10007E00277F021202AC8F29E52875F00A84FD7CD9
:10008E00007F011203F9E52875F00A84E5F0FD7C86
:10009E00007F021203F97D0B7C007F031203F9E54A
:1000AE002775F00A84FD7C007F041203F9E527759D
:1000BE00F00A84E5F0FD7C007F051203F97D0B7CD0
:1000CE00007F061203F9E52975F00A84FD7C007F96
:1000DE00071203F9E52975F00A84E5F0FD7C007F2F
:0700EE00081203F9020011E2
:10030500E52AB401220529E529C394644019E4F5D9
:10031500290527E527943C400EE4F5270528E5281F
:08032500943C4003E4F528229A
:03000B000200F5FB
:1000F500C0E0C0F0C083C082C0D075D000C000C0D1
:0D01050001C002C003C004C005C006C00751
:10011200758A18758CFC0522E52270020521C394AC
:1001220014E5219400400975210075220012027322
:100132000524E52470020523C39402E523940040BC
:100142000975230075240012038C0526E52670022A
:100152000525C3940AE525940040097525007526F6
:04016200001203057F
:10016600D007D006D005D004D003D002D001D000ED
:0B017600D0D0D082D083D0F0D0E03297
:0A03A700EF1FAC0670011E4C600E43
:0C03B100752F027530EFD530FDD52FFA06
:0303BD0080E822B3
:05041400AF2EE4F52EFF
:0104190022C0
:1003D700E4FF20B1010F20B0027F0220B2027F03A9
:0503E70020B3027F04B9
:0103EC0022EE
:10027300852C2D1203D78F2CE52DB40107E52C70A7
:1002830003752E01E52DB40207E52C7003752E02CC
:10029300E52DB40307E52C7003752E03E52DB40497
:0802A30007E52C7003752E0421
:0102AB002230
:10036F000C123F065B4F666D7D077F6F00400909DA
:0C037F00000A0A0A0A0A0A0A0A01080118
:0903F900AE0574092FF8A60622D6
:10020D00E4F580EF14B40800505490022575F00306
:10021D00A4C58325F0C5837302023D02024102028B
:10022D004502024902024D02025502025D020265BB
:10023D00D2A4800ED2A48012D2A48016D2A4801A89
:10024D00C2A4D2A3D2A28016C2A4D2A3C2A2800EEF
:10025D00C2A4C2A3D2A28006C2A4C2A3C2A2741217
:06026D002DF8E6F58022E9
:10038C0074092508F8E6FD7C00AF0812020D05087B
:0A039C00E508C39409400375080149
:0103A6002234
:1003C0005389F0438901758A18758CFCC28DD28CD3
:0703D000D2A9D2AFC2B9228D
:10032D008F2F8C308D311204027FA01202DC12034C
:10033D00EDAF2F1202DC1203EDAF311202DC12030E
:04034D00ED020003BA
:0202AC008F2F92
:1002AE001204027FA01202DC1203EDAF2F1202DC49
:1002BE001203ED1204027FA11202DC1203ED1203EF
:0D02CE00518F30D20012040B120003AF302C
:0102DB002200
:09040200D2A0D2A1C2A0C2A12225
:07000300C2A0D2A1D2A0228D
:0202DC00AD076C
:1002DE00E4FB74807E00A803088006CEA2E713CE4E
:1002EE0013D8F8FFEDF582EF558224FF92A0D2A12C
:0602FE00C2A10BBB08DCED
:0103040022D6
:10035100E4FFD2A0FED2A130A00D7480A8060880CF
:0D03610002C313D8FC4207C2A10EBE08E87B
:01036E00226C
:09040B00A20092A0D2A1C2A1221C
:0B03ED00D2A0D2A1A2A0E433FFC2A165
:0103F80022E2
:0300000002018179
:0C018100787FE4F6D8FD7581310201C8DA
:10018D0002000EE493A3F8E493A34003F68001F27A
:10019D0008DFF48029E493A3F85407240CC8C33373
:1001AD00C4540F4420C8834004F456800146F6DF42
:1001BD00E4800B010204081020408090036FE47E60
:1001CD00019360BCA3FF543F30E509541FFEE49337
:1001DD00A360010ECF54C025E060A840B8E493A3FE
:1001ED00FAE493A3F8E493A3C8C582C8CAC583CA29
:1001FD00F0A3C8C582C8CAC583CADFE9DEE780BEE1
:01038B000071
:00000001FF
