:1009D20020200020202D20202D20200020203A2021
:0509E200203A20200076
:1006950012050DE518FB3395E0FA750C027D017F17
:1006A50001120958E519FB3395E0FA750C027D0432
:1006B5007F01120958E51AFB3395E0FA750C027DA6
:1006C500077F01120958E51BFB3395E0FA750C020B
:1006D5007D017F02120958E51CFB3395E0FA750C84
:1006E500027D047F02120958E51DFB3395E0FA757A
:0906F5000C027D077F0202095886
:10000E00E524B4020B0521E52175F0068485F02167
:10001E00E524640360030200E874182521F806D372
:10002E00E518648094E34003E4F518D3E519648081
:10003E00948C4003751901E51964016023E5196478
:10004E0003601DE51964056017E51964076011E585
:10005E00196408600BE519640A6005E519B40C0B08
:10006E00D3E51A6480949F404D8048E5196404607E
:10007E0011E5196406600BE51964096005E519B40C
:10008E000B0BD3E51A6480949E402B8026E519B4A1
:10009E000224E51875F004120457AFF0EF700BD37D
:1000AE00E51A6480949D400E8009D3E51A6480940D
:1000BE009C4003751A01D3E51B648094974003E4BA
:1000CE00F51BD3E51C648094BB4003E4F51CD3E51B
:1000DE001D648094BB4003E4F51DE52464046003B5
:1000EE000201E374182521F816C3E5186480948084
:1000FE005003751863C3E519648094815003751914
:10010E000CE51964016023E5196403601DE51964AB
:10011E00056017E51964076011E5196408600BE5C1
:10012E0019640A6005E519B40C17C3E51A648094C6
:10013E00815003751A1FD3E51A6480949F40728014
:10014E006DE51964046011E5196406600BE5196428
:10015E00096005E519B40B17C3E51A648094815044
:10016E0003751A1ED3E51A6480949E4044803FE5C1
:10017E00196402703CE51875F004120457AFF0EFE5
:10018E007017C3E51A648094815003751A1DD3E568
:10019E001A6480949D401A8015C3E51A6480948178
:1001AE005003751A1CD3E51A6480949C4003751A8B
:1001BE0001C3E51B648094805003751B17C3E51CB7
:1001CE00648094805003751C3BC3E51D648094804D
:1001DE005003751D3BE5217014E523B4010F7BFF21
:1001EE007A0979D27D017F011209178011E518FB7A
:1001FE003395E0FA750C027D017F01120958E52155
:10020E00B40114E523B4010F7BFF7A0979D27D0482
:10021E007F011209178011E519FB3395E0FA750C71
:10022E00027D047F01120958E521B40214E523B4BE
:10023E00010F7BFF7A0979D27D077F0112091780A2
:10024E0011E51AFB3395E0FA750C027D077F01125A
:10025E000958E521B40314E523B4010F7BFF7A0995
:10026E0079D27D017F021209178011E51BFB3395B0
:10027E00E0FA750C027D017F02120958E521B404E3
:10028E0014E523B4010F7BFF7A0979D27D047F0236
:10029E001209178011E51CFB3395E0FA750C027DEF
:1002AE00047F02120958E521B40512E523B4010DAD
:1002BE007BFF7A0979D27D077F02020917E51DFBC4
:0F02CE003395E0FA750C027D077F021209582262
:10075A001209E71200031209A57BFF7A0979D57DF0
:10076A00017F011209177BFF7A0979DE7D017F0279
:10077A001209171202DD1206268F24E524B4011687
:10078A00E5227007752201F521800BE522B40106E6
:10079A00E4F5221202DDE5221460080470D812067C
:0807AA009580D312000E80CEF1
:03000B0002083AAE
:09083A00C0E0C0D075D000C00779
:10084300758A18758CFC0520E5207002051FC3947A
:10085300F4E51F94014012751F00752000E5237015
:09086300047F0180027F008F2355
:07086C00D007D0D0D0E0322C
:0609FB00C2A58F80D2A707
:080A01007F027EEFDEFEDFFC48
:010A090022CA
:0A0A0A00C2A61209FBC2A7020A01EE
:10093A00CFCDCFCECCCE1204B87C007D0A1204B83B
:04094A00ED2430FF69
:0A094E00D2A61209FBC2A7020A019B
:1009BC00AE07BE0104ED148006BE0209ED243F44CF
:0609CC0080FF120A0A225E
:1009E7007F38120A0A7F0C120A0A7F06120A0A7F48
:0409F70001020A0AE5
:0A0A1400AC031209BCAF0402094E46
:060917008B088A09890A21
:10091D001209BCE4FDAB08AA09A90A8D82758300F2
:0C092D00120479FF600612094E0D80E9EB
:01093900229B
:0C08E4007F0AEA24FFFDE434FFFC7E00E4
:0808F0008E0D8F0E8C0F8D1090
:1008F8007F017E00E4FBEBC39510E50F6480F8747C
:0E0908008098500AAC0DAD0E1204A60B80E8CC
:0109160022BE
:040958008A0A8B0B71
:10095C001209BCAA0CEAD39400400D1208E4AC0AAC
:08096C00AD0B12093A1A80EDEF
:010974002260
:100800001209BCC3EA64809480400B7F2B12094E0E
:100810008A168B17800E7F2D12094EC3E49BF517A5
:10082000E49AF516AA15EAD39400400D1208E4AC38
:0908300016AD1712093A1A80ED09
:01083900229C
:040873008A278B281D
:100877001209BCAA29EAD3940040297F101208E67E
:10088700AC27AD28CFCDCFCECCCE1204B8EF540FC6
:10089700FEC3940AEE5004243080022437FF120965
:0408A7004E1A80D194
:0108AB00222A
:0408AC008A2C8B2DDA
:1008B0001209BCAA2EEAD394004028EA24FFFDE4E2
:1008C00034FFFC7F027E001208F0AC2CAD2DCFCDA2
:1008D000CFCECCCE1204B8EF54012430FF12094E13
:0308E0001A80D2A9
:0108E30022F2
:090A1E000718180109101100026B
:05000300C2B5C2B622E7
:0506FE002DFDEE3CFCA7
:060703008C088D09AB0714
:10070900D2B5E4FD74017E00A805088005C333CE87
:1007190033CED8F9FFEBF582EF558224FF92B4D29C
:10072900B6C2B60DBD08DDE4FD74017E00A805085A
:100739008005C333CE33CED8F9FFE5085EFEE5095F
:100749005F4E24FF92B4D2B6C2B60DBD08DBC2B566
:01075900227D
:0207B200AD0791
:1007B400E4F9430501D2B5FB74017E00A803088067
:1007C40005C333CE33CED8F9FFEDF582EF5582243D
:1007D400FF92B4C2B6D2B60BBB08DDE4FBD2B6C2FC
:1007E400B630B40D7401A803088002C333D8FC42A8
:0B07F400010BBB08E8C2B5C2B4AF01A6
:0107FF0022D7
:1002DD00E4FDFC7F8E120703E51875F00A12045732
:1002ED00FF3395E0FEEFC4F8540FC868FFEEC45419
:1002FD00F048FEE51875F00A120457ADF0ED339590
:10030D00E0FCEF7F8C1206FEE51975F00A1204571A
:10031D00FF3395E0FEEFC4F8540FC868FFEEC454E8
:10032D00F048FEE51975F00A120457ADF0ED33955E
:10033D00E0FCEF7F881206FEE51A75F00A120457ED
:10034D00FF3395E0FEEFC4F8540FC868FFEEC454B8
:10035D00F048FEE51A75F00A120457ADF0ED33952D
:10036D00E0FCEF2DFDEE3CFC7F86120703E51B75CF
:10037D00F00A120457FF3395E0FEEFC4F8540FC88E
:10038D0068FFEEC454F048FEE51B75F00A120457E1
:10039D00ADF0ED3395E0FCEF2DFDEE3CFC7F8412CE
:1003AD000703E51C75F00A120457FF3395E0FEEFC5
:1003BD00C4F8540FC868FFEEC454F048FEE51C7530
:1003CD00F00A120457ADF0ED3395E0FCEF2DFDEE84
:1003DD003CFC7F82120703E51D75F00A120457FFDE
:1003ED003395E0FEEFC4F8540FC868FFEEC454F027
:1003FD0048FEE51D75F00A120457ADF0ED3395E09A
:10040D00FCEF2DFDEE3CFC7F80120703E51E75F021
:10041D000A120457FF3395E0FEEFC4F8540FC86875
:10042D00FFEEC454F048FEE51E75F00A120457ADF8
:10043D00F0ED3395E0FCEF2DFDEE3CFC7F8A1207CD
:0A044D00037D807C007F8E02070310
:10050D007F8C1207B2EFC4540F75F00AA4FEEF549E
:10051D000F2EF5187F881207B2EFC4540F75F00A2D
:10052D00A4FEEF540F2EF5197F861207B2EFC454B7
:10053D000F75F00AA4FEEF540F2EF51A7F841207E3
:10054D00B2EFC4540F75F00AA4FEEF540F2EF51B35
:10055D007F821207B2EFC4540F75F00AA4FEEF5458
:10056D000F2EF51C7F801207B2EFC4540F75F00AE1
:10057D00A4FEEF540F2EF51D7F8A1207B2EFC4545F
:0C058D000F75F00AA4FEEF540F2EF51EAF
:01059900223F
:0A097500EF1FAC0670011E4C600E6F
:0C097F00750A02750BEFD50BFDD50AFAC6
:03098B0080E822DF
:10062600E4F508F50920B1167F14FE12097530B1FC
:10063600FD7F147E0012097575080075090120B04A
:10064600177F147E0012097530B0FD7F147E0012EC
:10065600097575080075090220B2177F147E00120D
:10066600097530B2FD7F147E001209757508007594
:10067600090320B3177F147E0012097530B3FD7F7E
:0E068600147E00120975750800750904AF098D
:010694002243
:10098E005389F0438901758A18758CFCC28DD28CFF
:07099E00D2A9D2AFC2B922B9
:1009A5005389F0438901758A18758CFCC28DD28CE8
:0709B500D2A9D2AFC2B922A2
:0300000002059A5C
:0C059A00787FE4F6D8FD75812E0205E1A3
:10045700C2D530F707B2D563F0FF05F030E70CB22D
:10046700D5F4048463F0FF05F080018430D502F4ED
:0204770004225D
:10047900BB010CE58229F582E5833AF583E0225038
:1004890006E92582F8E622BBFE06E92582F8E22282
:0D049900E58229F582E5833AF583E493229C
:1004A600EF8DF0A4A8F0CF8CF0A428CE8DF0A42E6A
:0204B600FE2224
:1004B800BC000BBE0029EF8DF084FFADF022E4CC28
:1004C800F875F008EF2FFFEE33FEEC33FCEE9DECF1
:1004D800984005FCEE9DFE0FD5F0E9E4CEFD22ED37
:1004E800F8F5F0EE8420D21CFEADF075F008EF2F81
:1004F800FFED33FD4007985006D5F0F222C398FD72
:050508000FD5F0EA220E
:1005A60002075AE493A3F8E493A34003F68001F20A
:1005B60008DFF48029E493A3F85407240CC8C33356
:1005C600C4540F4420C8834004F456800146F6DF25
:1005D600E4800B0102040810204080900A1EE47E8D
:1005E600019360BCA3FF543F30E509541FFEE4931A
:1005F600A360010ECF54C025E060A840B8E493A3E1
:10060600FAE493A3F8E493A3C8C582C8CAC583CA0B
:10061600F0A3C8C582C8CAC583CADFE9DEE780BEC3
:010A270000CE
:00000001FF
