:10017600C2901201F912009A8F15E51564017023D9
:100186000512531203E5127002F514E512B40103C9
:10019600751432E512B4020375144BE512B4030369
:0F01A600751464E512FD7C007F0112010980C60B
:03000B000201B53A
:1001B500C0E0C0F0C0D0758A9C758CFF0513E513AF
:1001C50075F0648485F013E513D395144004C2904B
:0B01D5008002D290D0D0D0F0D0E032F9
:0A01E000EF1FAC0670011E4C600E0C
:0C01EA007518027519C7D519FDD518FA53
:0301F60080E8227C
:10009A00E4F516F51720B1167F14FE1201E030B10F
:1000AA00FD7F147E001201E075160075170120B05D
:1000BA00177F147E001201E030B0FD7F147E00121B
:1000CA0001E075160075170220B2177F147E001220
:1000DA0001E030B2FD7F147E001201E07516007552
:1000EA00170320B3177F147E001201E030B3FD7F9F
:0E00FA00147E001201E0751600751704AF1792
:0101080022D4
:1001F9005389F0438901758A9C758CFFC28DD28C15
:07020900D2A9D2AFC2B92255
:0C0210000A083F065B4F666D7D077F6F9C
:10010900EF14B40800505490011E75F003A4C58380
:1001190025F0C5837302013602013A02013E02014C
:100129004202014602014E02015602015ED2A4803A
:100139000ED2A48012D2A48016D2A4801AC2A4D24C
:10014900A3D2A28016C2A4D2A3C2A2800EC2A4C204
:10015900A3D2A28006C2A4C2A3C2A274082DF8E643
:0D016900F5807F017E001201E0E4F58022A8
:0300000002000EED
:0C000E00787FE4F6D8FD758119020055DA
:10001A00020176E493A3F8E493A34003F68001F285
:10002A0008DFF48029E493A3F85407240CC8C333E7
:10003A00C4540F4420C8834004F456800146F6DFB6
:10004A00E4800B0102040810204080900210E47E34
:10005A00019360BCA3FF543F30E509541FFEE493AB
:10006A00A360010ECF54C025E060A840B8E493A372
:10007A00FAE493A3F8E493A3C8C582C8CAC583CA9D
:10008A00F0A3C8C582C8CAC583CADFE9DEE780BE55
:01021C0000E1
:00000001FF
