:0E031C00436C6F636B3A0020203A20203A00B9
:100120001202F91202CC7BFF7A03791C7D017F0158
:100130001202557BFF7A0379237D017F021202555B
:1001400020B1080518E51870020517750C02AB16EA
:10015000AA157D017F02120296750C02AB18AA1730
:100160007D047F02120296750C02AB14AA137D0760
:070170007F0212029680C914
:03000B000200A24E
:0400A200C0E0C0D02A
:1000A600758A18758CFC0512E51270020511C39449
:1000B600E8E5119403405E7511007512000514E51C
:1000C6001470020513943CE5139400404875130020
:1000D6007514000518E51870020517943CE5179489
:1000E6000040327517007518000516E516700205F2
:1000F60015943CE5159400401C751700751800050D
:1001060016E516700205159418E515940040067557
:05011600150075160044
:05011B00D0D0D0E0325D
:0A02B300EF1FAC0670011E4C600E38
:0C02BD00752A02752BEFD52BFDD52AFA0F
:0302C90080E822A8
:06030D00C2A58F80D2A7FB
:080313007F027EEFDEFEDFFC3D
:01031B0022BF
:0A033600C2A612030DC2A7020313B2
:10027800CFCDCFCECCCE12004D7C007D0A12004DE2
:04028800ED2430FF32
:0A028C00D2A612030DC2A70203134D
:1002E300AE07BE0104ED148006BE0209ED243F44AF
:0602F30080FF1203362219
:1002F9007F381203367F0C1203367F061203367FCE
:0403090001020336B4
:0A034000AC031202E3AF0402028CCA
:060255008B088A09890AEA
:10025B001202E3E4FDAB08AA09A90A8D827583009B
:0C026B0012000EFF600612028C0D80E9EC
:010277002264
:0C0222007F0AEA24FFFDE434FFFC7E00AC
:08022E008E0D8F0E8C0F8D1058
:100236007F017E00E4FBEBC39510E50F6480F87444
:0E0246008098500AAC0DAD0E12003B0B80E804
:010254002287
:040296008A0A8B0B3A
:10029A001202E3AA0CEAD39400400D120222AC0A1D
:0802AA00AD0B1202781A80ED81
:0102B2002229
:100177001202E3C3EA64809480400B7F2B12028C47
:100187008A1E8B1F800E7F2D12028CC3E49BF51FE6
:10019700E49AF51EAA1DEAD39400400D120222AC80
:0901A7001EAD1F1202781A80ED52
:0101B000222C
:0401B1008A228B23F0
:1001B5001202E3AA24EAD3940040297F10120224F4
:1001C500AC22AD23CFCDCFCECCCE12004DEF540F08
:1001D500FEC3940AEE5004243080022437FF120235
:0401E5008C1A80D11F
:0101E90022F3
:0401EA008A278B28AD
:1001EE001202E3AA29EAD394004028EA24FFFDE490
:1001FE0034FFFC7F027E0012022EAC27AD28CFCD3D
:10020E00CFCECCCE12004DEF54012430FF12028C13
:03021E001A80D271
:0102210022BA
:1002CC005389F0438901758A18758CFCC28DD28CC8
:0702DC00D2A9D2AFC2B92282
:0300000002032ACE
:0C032A00787FE4F6D8FD75812B020120DD
:10000E00BB010CE58229F582E5833AF583E02250A7
:10001E0006E92582F8E622BBFE06E92582F8E222F1
:0D002E00E58229F582E5833AF583E493220B
:10003B00EF8DF0A4A8F0CF8CF0A428CE8DF0A42ED9
:02004B00FE2293
:10004D00BC000BBE0029EF8DF084FFADF022E4CC97
:10005D00F875F008EF2FFFEE33FEEC33FCEE9DEC60
:10006D00984005FCEE9DFE0FD5F0E9E4CEFD22EDA6
:10007D00F8F5F0EE8420D21CFEADF075F008EF2FF0
:10008D00FFED33FD4007985006D5F0F222C398FDE1
:05009D000FD5F0EA227E
:00000001FF
