:1000D10075A0FE12010A12000E8F0AE50A60F7B43C
:1000E10001F4050BE50BC3940240EBE4F50B80E64C
:03000B0002007D73
:0B007D00C0E0C0D075D000C000C0077C
:10008800758A18758CFC0509E50970020508C39482
:10009800F4E50894014029750800750900E50B701E
:1000A8000DAFA07801EF08800123D8FDF5A0E50B7E
:1000B800B4010DAFA07801EF08800103D8FDF5A0C9
:0900C800D007D000D0D0D0E03206
:10010A005389F0438901758A18758CFCC28DD28C8B
:07011A00D2A9D2AFC2B92245
:0A00F100EF1FAC0670011E4C600EFC
:0C00FB00750E02750FEFD50FFDD50EFA43
:0301070080E8226B
:10000E00E4F50CF50D20B1167F14FE1200F130B19F
:10001E00FD7F147E001200F1750C00750D0120B0ED
:10002E00177F147E001200F130B0FD7F147E001297
:10003E0000F1750C00750D0220B2177F147E0012B0
:10004E0000F130B2FD7F147E001200F1750C0075C8
:10005E000D0320B3177F147E001200F130B3FD7F25
:0E006E00147E001200F1750C00750D04AF0D2C
:01007C002261
:03000000020121D9
:0C012100787FE4F6D8FD75810F0200D154
:00000001FF
