:10017600C2A11201EDE4F5148514137F0A7E001264
:1001860001D40514E514C3946440ED751464E514B4
:10019600D3940040E08514137F0A7E001201D41523
:0301A6001480EBD7
:03000B000201A946
:1001A900C0E0C0F0C0D0758A9C758CFF0512E512BD
:1001B90075F0648485F012E512D395134004C2A149
:0B01C9008002D2A1D0D0D0F0D0E032F4
:0A01D400EF1FAC0670011E4C600E18
:0C01DE007517027518C7D518FDD517FA63
:0301EA0080E82288
:10009A00E4F515F51620B1167F14FE1201D430B11D
:1000AA00FD7F147E001201D475150075160120B06B
:1000BA00177F147E001201D430B0FD7F147E001227
:1000CA0001D475150075160220B2177F147E00122E
:1000DA0001D430B2FD7F147E001201D4751500756B
:1000EA00160320B3177F147E001201D430B3FD7FAC
:0E00FA00147E001201D4751500751604AF16A1
:0101080022D4
:1001ED005389F0438901758A9C758CFFC28DD28C21
:0701FD00D2A9D2AFC2B92262
:0C0204000A083F065B4F666D7D077F6FA8
:10010900EF14B40800505490011E75F003A4C58380
:1001190025F0C5837302013602013A02013E02014C
:100129004202014602014E02015602015ED2A4803A
:100139000ED2A48012D2A48016D2A4801AC2A4D24C
:10014900A3D2A28016C2A4D2A3C2A2800EC2A4C204
:10015900A3D2A28006C2A4C2A3C2A274082DF8E643
:0D016900F5807F017E001201D4E4F58022B4
:0300000002000EED
:0C000E00787FE4F6D8FD758118020055DB
:10001A00020176E493A3F8E493A34003F68001F285
:10002A0008DFF48029E493A3F85407240CC8C333E7
:10003A00C4540F4420C8834004F456800146F6DFB6
:10004A00E4800B0102040810204080900204E47E40
:10005A00019360BCA3FF543F30E509541FFEE493AB
:10006A00A360010ECF54C025E060A840B8E493A372
:10007A00FAE493A3F8E493A3C8C582C8CAC583CA9D
:10008A00F0A3C8C582C8CAC583CADFE9DEE780BE55
:0102100000ED
:00000001FF
