:10018A00E4FDFC7F011200FE12008F8F18E5186053
:10019A00F77FF47E01120161E518FD7C007F0112F0
:0401AA0000FE80E4EF
:0A01AE00EF1FAC0670011E4C600E3E
:0C01B8007514027515EFD515FDD514FA6D
:0301C40080E822AE
:10008F00E4F512F51320B1167F14FE1201AE30B154
:10009F00FD7F147E001201AE75120075130120B0A2
:1000AF00177F147E001201AE30B0FD7F147E001258
:1000BF0001AE75120075130220B2177F147E001265
:1000CF0001AE30B2FD7F147E001201AE75120075C5
:1000DF00130320B3177F147E001201AE30B3FD7FE0
:0E00EF00147E001201AE751200751304AF13DB
:0100FD0022E0
:0C01C7000A083F065B4F666D7D077F6FE6
:1000FE00EF14B40800505490011375F003A4C58397
:10010E0025F0C5837302012B02012F020133020178
:10011E003702013B02014302014B020153D2A4807C
:10012E000ED2A48012D2A48016D2A4801AC2A4D257
:10013E00A3D2A28016C2A4D2A3C2A2800EC2A4C20F
:10014E00A3D2A28006C2A4C2A3C2A274082DF8E64E
:03015E00F5802207
:0501D400007FE3DFFEE7
:0101D9002203
:10016100AD07AC06E4F516F517ED25E0FFEC33FE1F
:10017100C3E5179FE5169E500FB2A51201D40517CE
:09018100E51770E5051680E12286
:03000000020003F8
:0C000300787FE4F6D8FD75811802004AF1
:10000F0002018AE493A3F8E493A34003F68001F27C
:10001F0008DFF48029E493A3F85407240CC8C333F2
:10002F00C4540F4420C8834004F456800146F6DFC1
:10003F00E4800B01020408102040809001C7E47E89
:10004F00019360BCA3FF543F30E509541FFEE493B6
:10005F00A360010ECF54C025E060A840B8E493A37D
:10006F00FAE493A3F8E493A3C8C582C8CAC583CAA8
:10007F00F0A3C8C582C8CAC583CADFE9DEE780BE60
:0101D300002B
:00000001FF
