:040057007F147E0094
:0A005B00EF1FAC0670011E4C600E92
:0C006500750814750971D509FDD508FA5D
:0300710080E82202
:1000030075A0FE20B12512005730B1FD120057052F
:100013000AE50AC394084003E4F50AAF0A7401A889
:1000230007088002C333D8FCF4F5A020B0D5120032
:100033005730B0FD120057E50A7005750A078002B4
:10004300150AAF0A7401A807088002C333D8FCF469
:04005300F5A080AFE5
:0300000002007487
:0C007400787FE4F6D8FD75810A020003D5
:00000001FF
