:0B02FF0041444A204E54432052470067
:100107001202C07BFF7A0279FF7D017F011202494B
:100117007F9C1200978E228F23750C03AB23AA2294
:100127007D017F0212028A7FDC1200978E228F23C5
:10013700750C03AB23AA227D057F0212028A7FACCE
:100147001200978E228F23750C03AB23AA227D09F9
:0E0157007F0212028A7F0A7E001202A780B287
:0A02A700EF1FAC0670011E4C600E44
:0C02B1007508027509C7D509FDD508FACB
:0302BD0080E822B4
:0602E400C2A58F80D2A725
:0802EA007F027EEFDEFEDFFC67
:0102F20022E9
:0A030A00C2A61202E4C2A70202EA32
:10026C00CFCDCFCECCCE1200427C007D0A12004204
:04027C00ED2430FF3E
:0A028000D2A61202E4C2A70202EAAD
:1002C0007F3812030A7F0C12030A7F0612030A7F8B
:0402D0000102030A1A
:1002D400EDBF0103148002243F4480FF12030A226D
:0A031400AC031202D4AF0402028011
:060249008B088A09890AF6
:10024F001202D4E4FDAB08AA09A90A8D82758300B6
:0C025F00120003FF60061202800D80E90F
:01026B002270
:0C0216007F0AEA24FFFDE434FFFC7E00B8
:080222008E0D8F0E8C0F8D1064
:10022A007F017E00E4FBEBC39510E50F6480F87450
:0E023A008098500AAC0DAD0E1200300B80E81B
:010248002293
:04028A008A0A8B0B46
:10028E001202D4AA0CEAD39400400D120216AC0A44
:08029E00AD0B12026C1A80ED99
:0102A6002235
:100165001202D4C3EA6480948040097F2B12028076
:100175008A168B17C3EA64809480500E7F2D120275
:1001850080C3E49BF517E49AF516AA15EAD3940003
:0F019500400D120216AC16AD1712026C1A80ED57
:0101A4002238
:0401A5008A1A8B1B0C
:1001A9001202D4AA1CEAD3940040297F1012021823
:1001B900AC1AAD1BCFCDCFCECCCE120042EF540F2F
:1001C900FEC3940AEE5004243080022437FF120241
:0401D900801A80D137
:0101DD0022FF
:0401DE008A1F8B20C9
:1001E2001202D4AA21EAD394004028EA24FFFDE4B3
:1001F20034FFFC7F027E00120222AC1FAD20CFCD65
:10020200CFCECCCE120042EF54012430FF12028036
:030212001A80D27D
:0102150022C6
:02009700AD07B3
:10009900E4F508F509C2B5C2B6FB74807E00A80371
:1000A900088006CEA2E713CE13D8F8FFEDF582EF4C
:1000B900558224FF92B4D2B6C2B60BBB08DCE4FB6E
:1000C900D2B6C2B630B714E47E80A803088005CE44
:1000D900C313CE13D8F94209EE42080BBB10E1D283
:1000E900B5ED30E3028011E508C4F854F0C868FEA4
:0D00F900E509C4540F48FF22E508FF7E0012
:0101060022D6
:030000000202F306
:0C02F300787FE4F6D8FD75812302010736
:10000300BB010CE58229F582E5833AF583E02250B2
:1000130006E92582F8E622BBFE06E92582F8E222FC
:0D002300E58229F582E5833AF583E4932216
:10003000EF8DF0A4A8F0CF8CF0A428CE8DF0A42EE4
:02004000FE229E
:10004200BC000BBE0029EF8DF084FFADF022E4CCA2
:10005200F875F008EF2FFFEE33FEEC33FCEE9DEC6B
:10006200984005FCEE9DFE0FD5F0E9E4CEFD22EDB1
:10007200F8F5F0EE8420D21CFEADF075F008EF2FFB
:10008200FFED33FD4007985006D5F0F222C398FDEC
:050092000FD5F0EA2289
:00000001FF
